S0200000436C696D617465436F6E74726F6C41706C69636174696F6E2E7372656360
S113000049C0000064C0000062C0000060C000007D
S11300105EC000005CC000005AC0000057C1000070
S113002056C0000054C0000052C000008AC1000045
S11300304EC000004CC000004AC000008CC100004B
S113004046C0000044C0000042C0000040C00000A0
S11300503EC000003CC000003AC0000038C00000B0
S113006036C0000045C1000032C0000030C00000AE
S11300702EC000002CC000002AC0000076C1000081
S113008026C0000024C0000022C0000020C00000E0
S11300901EC0000011241FBECFEFD0E1DEBFCDBFD4
S11300A011E0A0E0B1E0EAE9F6E000E00BBF02C035
S11300B007900D92A631B107D9F721E0A6E1B1E08E
S11300C001C01D92A432B207E1F789D0E4C298CFEF
S11300D06F927F928F92CF92DF92EF92FF920F9363
S11300E01F93CF93DF933C017B01EA0182E290E00E
S11300F067D18C0184E090E063D16C010115110596
S113010009F45CC0892B09F45CC097E0EEE0F1E0EF
S1130110D80101900D929A95E1F7F30180819181C4
S113012044E0B60185D2B601C80177D2F801019046
S11301300020E9F731970F2EFCE26F2EF0E27F2EBC
S1130140812CF02D608271828282F70180819181FD
S113015044E0B6016DD2F80101900020E9F731972F
S11301606082718282828881998144E0B60160D282
S1130170B601C80152D2F80101900020E9F7319785
S11301808AE090E0918380837801C0E0D0E005C0EC
S1130190F70181917F010BD12196F8010190002094
S11301A0E9F73197E01BF10BCE17DF0788F3C8019D
S11301B09CD1C6019AD180E090E005C08FEF9FEFFB
S11301C002C08FEF9FEFDF91CF911F910F91FF90AE
S11301D0EF90DF90CF908F907F906F90089583E39E
S11301E090E0DAD01FEF0F2EF8E7EF2EF02D0F2E50
S11301F0F5E0FF2EF02D0F2EFCEFAF2EF02D6894BE
S1130200BB24B3F80F2EF4EFCF2EF02DDD24D394BE
S113021080911F01803821F480911E018111109575
S1130220112321F180911F01803811F480911E0166
S113023080911C0190911D018A3F910548F3C43FB0
S113024081E0D80719F0CC3FD84021F40095CE2D99
S1130250DF2D07C0011103C0CA2DDB2D02C0CC2D38
S1130260DD2D10921D0110921C01D2CF80911E0130
S1130270882321F180911F01887F883069F08032C2
S1130280D9F4CC3F88E0D80791F0C83785E0D80787
S113029099F4CC2DDD2D10C0C43F81E0D80751F076
S11302A0C83785E0D80741F4CA2DDB2D05C0CE2D13
S11302B0DF2D02C0CE2DDF2D10921E0146E151E04C
S11302C068E171E08AE191E003DFA2CF1F920F920F
S11302D00FB60F9211248F9381E080931E0186B193
S11302E080931F018F910F900FBE0F901F90189550
S11302F01F920F920FB60F9211242F933F938F9357
S11303009F938091780090E090931B0180931A0151
S11303109091790020911A0130911B01892F90E06E
S1130320982F8827820F931F90931B0180931A01A3
S11303309F918F913F912F910F900FBE0F901F901F
S113034018951F920F920FB60F9211240F900FBEA3
S11303500F901F9018951F920F920FB60F921124B1
S11303600F900FBE0F901F9018951F920F920FB60B
S11303700F9211248F939F9380911C0190911D01E2
S1130380019690931D0180931C019F918F910F9072
S11303900FBE0F901F9018959093CD008093CC00C2
S11303A086E08093CA0088E18093C9000895E8EC50
S11303B0F0E0908195FFFDCF8093CE0080E008951A
S11303C0CF93DF938230910510F482E090E0E091C6
S11303D02201F091230120E030E0C0E0D0E030972A
S11303E011F14081518148175907C0F04817590746
S11303F061F482819381209719F09B838A832BC0B7
S1130400909323018093220126C02115310519F010
S11304104217530718F49A01BE01DF01EF0102806D
S1130420F381E02DDCCF2115310509F1281B390BAF
S11304302430310590F412968D919C911397611597
S1130440710521F0FB019383828304C090932301FF
S113045080932201FD01329644C0FD01E20FF31F97
S113046081939193225031092D933C933AC020916A
S1130470200130912101232B41F42091020130917C
S11304800301309321012093200120910001309138
S113049001012115310541F42DB73EB74091040106
S11304A050910501241B350BE0912001F0912101AD
S11304B0E217F307A0F42E1B3F0B2817390778F037
S11304C0AC014E5F5F4F2417350748F04E0F5F1F96
S11304D050932101409320018193919302C0E0E065
S11304E0F0E0CF01DF91CF9108950F931F93CF9345
S11304F0DF93009709F48CC0FC01329713821282B7
S113050000912201109123010115110581F420812C
S11305103181820F931F20912001309121012817EE
S1130520390779F5F0932101E093200171C0D801D6
S113053040E050E0AE17BF0750F412962D913C9165
S11305401397AD012115310509F1D901F3CF9D01AF
S1130550DA013383228360817181860F971F8217AA
S1130560930769F4EC0128813981260F371F2E5F28
S11305703F4F318320838A819B8193838283452BE0
S113058029F4F0932301E093220142C01396FC93D3
S1130590EE931297ED01499159919E01240F351F55
S11305A0E217F30771F480819181840F951F0296FD
S11305B011969C938E938281938113969C938E9330
S11305C01297E0E0F0E0D80112968D919C91139778
S11305D0009719F0F8018C01F6CF8D919C91980148
S11305E02E5F3F4F820F931F2091200130912101F4
S11305F02817390769F4309729F4109223011092CF
S1130600220102C01382128210932101009320015F
S1130610DF91CF911F910F910895FB01DC010D90A3
S11306200020E9F7119701900D920020E1F7089559
S1130630BB274A3031F4992322F4BDE29095819589
S11306409F4F01C0BB27FB015527AA27880F991F7D
S1130650AA1FA41710F0A41B83955051B9F7A05DED
S1130660AA3308F0A95DA193009779F7B111B1936A
S11306701192CB0100C0DC01FC01672F719177233B
S1130680E1F7329704C07C916D9370836291AE1749
S10D0690BF07C8F30895F894FFCFE4
S113069A00002401200057656C636F6D6500506F7C
S10906AA74313A20000047
S9030000FC
