:1000000049C0000064C0000062C0000060C0000081
:100010005EC000005CC000005AC0000021C20000A9
:1000200056C0000054C0000052C0000095C200003D
:100030004EC000004CC000004AC0000097C2000043
:1000400046C0000044C0000042C0000040C00000A4
:100050003EC000003CC000003AC0000038C00000B4
:1000600036C000000FC2000032C0000030C00000E7
:100070002EC000002CC000002AC0000081C2000079
:1000800026C0000024C0000022C0000020C00000E4
:100090001EC0000011241FBECFEFD0E1DEBFCDBFD8
:1000A00011E0A0E0B1E0E0EBF8E000E00BBF02C03F
:1000B00007900D92A631B107D9F721E0A6E1B1E092
:1000C00001C01D92A532B207E1F728D1EFC398CF46
:1000D000ECE7F0E080818F7780838081806480838B
:1000E0008081807E808380818F7D8083EBE7F0E05C
:1000F0008081887F8083EAE7F0E080818760808369
:100100008081886A808308956F927F928F92CF92C8
:10011000DF92EF92FF920F931F93CF93DF933C01F7
:100120007B01EA0182E290E056D28C0184E090E00B
:1001300052D26C010115110509F45CC0892B09F438
:100140005CC097E0EEE0F1E0D80101900D929A9545
:10015000E1F7F3018081918144E0B60174D3B601E7
:10016000C80166D3F80101900020E9F731970F2EFE
:10017000FCE26F2EF0E27F2E812CF02D60827182E6
:100180008282F7018081918144E0B6015CD3F8015D
:1001900001900020E9F73197608271828282888124
:1001A000998144E0B6014FD3B601C80141D3F801AB
:1001B00001900020E9F731978AE090E091838083F5
:1001C0007801C0E0D0E005C0F70181917F01FAD14C
:1001D0002196F80101900020E9F73197E01BF10B1F
:1001E000CE17DF0788F3C8018BD2C60189D280E021
:1001F00090E005C08FEF9FEF02C08FEF9FEFDF9180
:10020000CF911F910F91FF90EF90DF90CF908F9043
:100210007F906F900895EF92FF920F931F93CF936B
:10022000DF9394EA9093BC00ECEBF0E0908199238B
:10023000ECF79091B900987F983009F04AC0880F88
:1002400081608093BB0084E88093BC00ECEBF0E01D
:1002500080818823ECF78091B900887F8034E1F5B4
:1002600041505109E9F0DB018B01040F151FECEB44
:10027000F0E094EC0F2EF9EBEF2EF12CF02D2BEBA0
:1002800030E0908380818823ECF7E7018881887FC4
:10029000803529F5E90188818D93A017B10789F789
:1002A00084E88093BC00ECEBF0E080818823ECF7DD
:1002B0008091B900887F8835A9F48091BB00FB014B
:1002C000E40FF51F808384E98093BC0080E090E018
:1002D0000BC08FEF9FEF08C08FEF9FEF05C08FEF30
:1002E0009FEF02C08FEF9FEFDF91CF911F910F9192
:1002F000FF90EF90089584B1876084B92398289A7D
:1003000082E58CBD08958EBD28980DB407FEFDCF03
:100310006EBD0DB407FEFDCF289A0895CF93DF93ED
:1003200000D0CDB7DEB7D4DEEAE7F0E080818064AC
:10033000808383E390E03BD1DEDF65E08CEAE3DF9E
:100340007894DD24DA948E010F5F1F4F0F2EF8E7AB
:10035000AF2EF02D0F2EF5E0BF2EF02D0F2EFCEF5F
:100360006F2EF02D6894772473F80F2EF4EF8F2EF4
:10037000F02D99249394F80101900020E9F731972A
:10038000AF01401B510BB80188E445DF8A81869597
:10039000869586958A8380912001803821F480910A
:1003A0001F018111D094DD2039F180912001803826
:1003B00011F480911F0180911D0190911E018A3FCF
:1003C0009105C8F284EFE81681E0F80629F08CEF79
:1003D000E81688E0F80621F4C094EA2CFB2C07C04C
:1003E000C11003C0E62CF72C02C0E82CF92C1092A7
:1003F0001E0110921D01BFCF80911F01882341F182
:1004000080912001887F883079F08032F9F48CEF78
:10041000E81688E0F806A9F088E7E81685E0F8060F
:10042000A9F4E82CF92C12C084EFE81681E0F80654
:1004300059F088E7E81685E0F80641F4E62CF72C39
:1004400005C0EA2CFB2C02C0EA2CFB2C10921F01E9
:1004500046E151E068E171E08AE191E055DE8BCF41
:100460001F920F920FB60F9211248F9381E0809309
:100470001F0186B1809320018F910F900FBE0F90C6
:100480001F9018951F920F920FB60F9211240BB662
:100490000F922F933F938F939F93EF93FF93EAE7EE
:1004A000F0E08081877F808380911C01811120C0D2
:1004B0008091780090E090931B0180931A019091B5
:1004C000790020911A0130911B01892F90E0982F1B
:1004D0008827820F931F90931B0180931A01ECE7EA
:1004E000F0E08081817E808381E080931C0122C0C6
:1004F00080911C018130F1F48091780090E090931C
:100500001901809318019091790020911801309180
:100510001901892F90E0982F8827820F931F9093BD
:10052000190180931801ECE7F0E08081807E8083E0
:1005300010921C01EAE7F0E0808188608083FF91DF
:10054000EF919F918F913F912F910F900BBE0F9044
:100550000FBE0F901F9018951F920F920FB60F921B
:1005600011240F900FBE0F901F9018951F920F929D
:100570000FB60F9211240F900FBE0F901F90189579
:100580001F920F920FB60F9211248F939F93809119
:100590001D0190911E01019690931E0180931D01F3
:1005A0009F918F910F900FBE0F901F901895909371
:1005B000CD008093CC0086E08093CA0088E18093D0
:1005C000C9000895E8ECF0E0908195FFFDCF80939D
:1005D000CE0080E00895CF93DF938230910510F430
:1005E00082E090E0E0912301F091240120E030E0EE
:1005F000C0E0D0E0309711F1408151814817590790
:10060000C0F04817590761F482819381209719F04F
:100610009B838A832BC0909324018093230126C05F
:100620002115310519F04217530718F49A01BE013C
:10063000DF01EF010280F381E02DDCCF21153105D0
:1006400009F1281B390B2430310590F412968D9155
:100650009C9113976115710521F0FB0193838283AF
:1006600004C09093240180932301FD01329644C07D
:10067000FD01E20FF31F81939193225031092D93D5
:100680003C933AC02091210130912201232B41F467
:100690002091020130910301309322012093210126
:1006A00020910001309101012115310541F42DB750
:1006B0003EB74091040150910501241B350BE09198
:1006C0002101F0912201E217F307A0F42E1B3F0B4A
:1006D0002817390778F0AC014E5F5F4F24173507B4
:1006E00048F04E0F5F1F50932201409321018193E8
:1006F000919302C0E0E0F0E0CF01DF91CF91089547
:100700000F931F93CF93DF93009709F48CC0FC01E4
:100710003297138212820091230110912401011556
:10072000110581F420813181820F931F20912101D5
:10073000309122012817390779F5F0932201E093CF
:10074000210171C0D80140E050E0AE17BF0750F45E
:1007500012962D913C911397AD012115310509F1A8
:10076000D901F3CF9D01DA01338322836081718146
:10077000860F971F8217930769F4EC01288139814E
:10078000260F371F2E5F3F4F318320838A819B8145
:1007900093838283452B29F4F0932401E093230172
:1007A00042C01396FC93EE931297ED014991599133
:1007B0009E01240F351FE217F30771F480819181A8
:1007C000840F951F029611969C938E93828193813C
:1007D00013969C938E931297E0E0F0E0D801129666
:1007E0008D919C911397009719F0F8018C01F6CF29
:1007F0008D919C9198012E5F3F4F820F931F209106
:100800002101309122012817390769F4309729F422
:10081000109224011092230102C0138212821093BD
:10082000220100932101DF91CF911F910F91089533
:10083000FB01DC010D900020E9F7119701900D926A
:100840000020E1F70895BB274A3031F4992322F4C0
:10085000BDE2909581959F4F01C0BB27FB015527B5
:10086000AA27880F991FAA1FA41710F0A41B83950D
:100870005051B9F7A05DAA3308F0A95DA193009784
:1008800079F7B111B1931192CB0100C0DC01FC01E9
:10089000672F71917723E1F7329704C07C916D93B4
:1008A00070836291AE17BF07C8F30895F894FFCF25
:1008B00000002501200057656C636F6D6500506F67
:0608C00074313A20000033
:00000001FF
